{
  "_format": "hh-sol-artifact-1",
  "contractName": "InvoiceRecord",
  "sourceName": "contracts/InvoiceRecord.sol",
  "abi": [
    {
      "anonymous": false,
      "inputs": [
        {
          "indexed": false,
          "internalType": "string",
          "name": "BuyerPAN",
          "type": "string"
        },
        {
          "indexed": false,
          "internalType": "uint256",
          "name": "Id",
          "type": "uint256"
        }
      ],
      "name": "AddRecord",
      "type": "event"
    },
    {
      "inputs": [
        {
          "internalType": "string",
          "name": "buyerPAN",
          "type": "string"
        },
        {
          "internalType": "string",
          "name": "sellerPAN",
          "type": "string"
        },
        {
          "internalType": "uint256",
          "name": "invoiceAmount",
          "type": "uint256"
        },
        {
          "internalType": "string",
          "name": "invoiceDate",
          "type": "string"
        }
      ],
      "name": "addRecord",
      "outputs": [],
      "stateMutability": "nonpayable",
      "type": "function"
    },
    {
      "inputs": [
        {
          "internalType": "string",
          "name": "buyerPAN",
          "type": "string"
        }
      ],
      "name": "getInvoiceByBuyerPAN",
      "outputs": [
        {
          "components": [
            {
              "internalType": "string",
              "name": "buyerPAN",
              "type": "string"
            },
            {
              "internalType": "string",
              "name": "sellerPAN",
              "type": "string"
            },
            {
              "internalType": "uint256",
              "name": "invoiceAmount",
              "type": "uint256"
            },
            {
              "internalType": "string",
              "name": "invoiceDate",
              "type": "string"
            },
            {
              "internalType": "uint256",
              "name": "id",
              "type": "uint256"
            }
          ],
          "internalType": "struct InvoiceRecord.Invoice[]",
          "name": "",
          "type": "tuple[]"
        }
      ],
      "stateMutability": "view",
      "type": "function"
    },
    {
      "inputs": [],
      "name": "getInvoiceList",
      "outputs": [
        {
          "components": [
            {
              "internalType": "string",
              "name": "buyerPAN",
              "type": "string"
            },
            {
              "internalType": "string",
              "name": "sellerPAN",
              "type": "string"
            },
            {
              "internalType": "uint256",
              "name": "invoiceAmount",
              "type": "uint256"
            },
            {
              "internalType": "string",
              "name": "invoiceDate",
              "type": "string"
            },
            {
              "internalType": "uint256",
              "name": "id",
              "type": "uint256"
            }
          ],
          "internalType": "struct InvoiceRecord.Invoice[]",
          "name": "",
          "type": "tuple[]"
        }
      ],
      "stateMutability": "view",
      "type": "function"
    }
  ],
  "bytecode": "0x608060405234801561001057600080fd5b50611214806100206000396000f3fe608060405234801561001057600080fd5b50600436106100415760003560e01c8063612cd908146100465780638290c0d214610076578063caef084114610092575b600080fd5b610060600480360381019061005b9190610865565b6100b0565b60405161006d9190610aa1565b60405180910390f35b610090600480360381019061008b9190610c1f565b61047d565b005b61009a610594565b6040516100a79190610aa1565b60405180910390f35b60606000808054905067ffffffffffffffff8111156100d2576100d1610ac8565b5b60405190808252806020026020018201604052801561010b57816020015b6100f86107bd565b8152602001906001900390816100f05790505b5090506000805b6000805490508110156103c0578585604051602001610132929190610d18565b604051602081830303815290604052805190602001206001600083815260200190815260200160002060000160405160200161016e9190610e35565b60405160208183030381529060405280519060200120036103ad576000818154811061019d5761019c610e57565b5b90600052602060002090600502016040518060a00160405290816000820180546101c690610d6b565b80601f01602080910402602001604051908101604052809291908181526020018280546101f290610d6b565b801561023f5780601f106102145761010080835404028352916020019161023f565b820191906000526020600020905b81548152906001019060200180831161022257829003601f168201915b5050505050815260200160018201805461025890610d6b565b80601f016020809104026020016040519081016040528092919081815260200182805461028490610d6b565b80156102d15780601f106102a6576101008083540402835291602001916102d1565b820191906000526020600020905b8154815290600101906020018083116102b457829003601f168201915b50505050508152602001600282015481526020016003820180546102f490610d6b565b80601f016020809104026020016040519081016040528092919081815260200182805461032090610d6b565b801561036d5780601f106103425761010080835404028352916020019161036d565b820191906000526020600020905b81548152906001019060200180831161035057829003601f168201915b5050505050815260200160048201548152505083838151811061039357610392610e57565b5b602002602001018190525081806103a990610eb5565b9250505b80806103b890610eb5565b915050610112565b5060008167ffffffffffffffff8111156103dd576103dc610ac8565b5b60405190808252806020026020018201604052801561041657816020015b6104036107bd565b8152602001906001900390816103fb5790505b50905060005b828110156104705783818151811061043757610436610e57565b5b602002602001015182828151811061045257610451610e57565b5b6020026020010181905250808061046890610eb5565b91505061041c565b5080935050505092915050565b60008080549050905060006040518060a0016040528087815260200186815260200185815260200184815260200183815250908060018154018082558091505060019003906000526020600020906005020160009091909190915060008201518160000190816104ed9190611094565b5060208201518160010190816105039190611094565b506040820151816002015560608201518160030190816105239190611094565b50608082015181600401555050846001600083815260200190815260200160002060000190816105539190611094565b507f117e4030c718545fd2d26e600975751981ca59db81c471e8bed4be1b9b244fbd85826040516105859291906111ae565b60405180910390a15050505050565b60606000805480602002602001604051908101604052809291908181526020016000905b828210156107b457838290600052602060002090600502016040518060a00160405290816000820180546105eb90610d6b565b80601f016020809104026020016040519081016040528092919081815260200182805461061790610d6b565b80156106645780601f1061063957610100808354040283529160200191610664565b820191906000526020600020905b81548152906001019060200180831161064757829003601f168201915b5050505050815260200160018201805461067d90610d6b565b80601f01602080910402602001604051908101604052809291908181526020018280546106a990610d6b565b80156106f65780601f106106cb576101008083540402835291602001916106f6565b820191906000526020600020905b8154815290600101906020018083116106d957829003601f168201915b505050505081526020016002820154815260200160038201805461071990610d6b565b80601f016020809104026020016040519081016040528092919081815260200182805461074590610d6b565b80156107925780601f1061076757610100808354040283529160200191610792565b820191906000526020600020905b81548152906001019060200180831161077557829003601f168201915b50505050508152602001600482015481525050815260200190600101906105b8565b50505050905090565b6040518060a0016040528060608152602001606081526020016000815260200160608152602001600081525090565b6000604051905090565b600080fd5b600080fd5b600080fd5b600080fd5b600080fd5b60008083601f84011261082557610824610800565b5b8235905067ffffffffffffffff81111561084257610841610805565b5b60208301915083600182028301111561085e5761085d61080a565b5b9250929050565b6000806020838503121561087c5761087b6107f6565b5b600083013567ffffffffffffffff81111561089a576108996107fb565b5b6108a68582860161080f565b92509250509250929050565b600081519050919050565b600082825260208201905092915050565b6000819050602082019050919050565b600081519050919050565b600082825260208201905092915050565b60005b838110156109185780820151818401526020810190506108fd565b60008484015250505050565b6000601f19601f8301169050919050565b6000610940826108de565b61094a81856108e9565b935061095a8185602086016108fa565b61096381610924565b840191505092915050565b6000819050919050565b6109818161096e565b82525050565b600060a08301600083015184820360008601526109a48282610935565b915050602083015184820360208601526109be8282610935565b91505060408301516109d36040860182610978565b50606083015184820360608601526109eb8282610935565b9150506080830151610a006080860182610978565b508091505092915050565b6000610a178383610987565b905092915050565b6000602082019050919050565b6000610a37826108b2565b610a4181856108bd565b935083602082028501610a53856108ce565b8060005b85811015610a8f5784840389528151610a708582610a0b565b9450610a7b83610a1f565b925060208a01995050600181019050610a57565b50829750879550505050505092915050565b60006020820190508181036000830152610abb8184610a2c565b905092915050565b600080fd5b7f4e487b7100000000000000000000000000000000000000000000000000000000600052604160045260246000fd5b610b0082610924565b810181811067ffffffffffffffff82111715610b1f57610b1e610ac8565b5b80604052505050565b6000610b326107ec565b9050610b3e8282610af7565b919050565b600067ffffffffffffffff821115610b5e57610b5d610ac8565b5b610b6782610924565b9050602081019050919050565b82818337600083830152505050565b6000610b96610b9184610b43565b610b28565b905082815260208101848484011115610bb257610bb1610ac3565b5b610bbd848285610b74565b509392505050565b600082601f830112610bda57610bd9610800565b5b8135610bea848260208601610b83565b91505092915050565b610bfc8161096e565b8114610c0757600080fd5b50565b600081359050610c1981610bf3565b92915050565b60008060008060808587031215610c3957610c386107f6565b5b600085013567ffffffffffffffff811115610c5757610c566107fb565b5b610c6387828801610bc5565b945050602085013567ffffffffffffffff811115610c8457610c836107fb565b5b610c9087828801610bc5565b9350506040610ca187828801610c0a565b925050606085013567ffffffffffffffff811115610cc257610cc16107fb565b5b610cce87828801610bc5565b91505092959194509250565b600082825260208201905092915050565b6000610cf78385610cda565b9350610d04838584610b74565b610d0d83610924565b840190509392505050565b60006020820190508181036000830152610d33818486610ceb565b90509392505050565b7f4e487b7100000000000000000000000000000000000000000000000000000000600052602260045260246000fd5b60006002820490506001821680610d8357607f821691505b602082108103610d9657610d95610d3c565b5b50919050565b60008190508160005260206000209050919050565b60008154610dbe81610d6b565b610dc88186610cda565b94506001821660008114610de35760018114610df957610e2c565b60ff198316865281151560200286019350610e2c565b610e0285610d9c565b60005b83811015610e2457815481890152600182019150602081019050610e05565b808801955050505b50505092915050565b60006020820190508181036000830152610e4f8184610db1565b905092915050565b7f4e487b7100000000000000000000000000000000000000000000000000000000600052603260045260246000fd5b7f4e487b7100000000000000000000000000000000000000000000000000000000600052601160045260246000fd5b6000610ec08261096e565b91507fffffffffffffffffffffffffffffffffffffffffffffffffffffffffffffffff8203610ef257610ef1610e86565b5b600182019050919050565b60006020601f8301049050919050565b600082821b905092915050565b600060088302610f4a7fffffffffffffffffffffffffffffffffffffffffffffffffffffffffffffffff82610f0d565b610f548683610f0d565b95508019841693508086168417925050509392505050565b6000819050919050565b6000610f91610f8c610f878461096e565b610f6c565b61096e565b9050919050565b6000819050919050565b610fab83610f76565b610fbf610fb782610f98565b848454610f1a565b825550505050565b600090565b610fd4610fc7565b610fdf818484610fa2565b505050565b5b8181101561100357610ff8600082610fcc565b600181019050610fe5565b5050565b601f8211156110485761101981610d9c565b61102284610efd565b81016020851015611031578190505b61104561103d85610efd565b830182610fe4565b50505b505050565b600082821c905092915050565b600061106b6000198460080261104d565b1980831691505092915050565b6000611084838361105a565b9150826002028217905092915050565b61109d826108de565b67ffffffffffffffff8111156110b6576110b5610ac8565b5b6110c08254610d6b565b6110cb828285611007565b600060209050601f8311600181146110fe57600084156110ec578287015190505b6110f68582611078565b86555061115e565b601f19841661110c86610d9c565b60005b828110156111345784890151825560018201915060208501945060208101905061110f565b86831015611151578489015161114d601f89168261105a565b8355505b6001600288020188555050505b505050505050565b6000611171826108de565b61117b8185610cda565b935061118b8185602086016108fa565b61119481610924565b840191505092915050565b6111a88161096e565b82525050565b600060408201905081810360008301526111c88185611166565b90506111d7602083018461119f565b939250505056fea2646970667358221220456ca78ac639a8f50e716e097026c6569feec96d20d5c5df8584c7c51057aa8564736f6c63430008110033",
  "linkReferences": {},
  "deployedLinkReferences": {}
}